S01000004D41534348494E452E73726563CC
S113000071C000008EC000008CC000008AC00000D7
S113001088C0000086C0000084C0000082C00000C8
S113002080C000007EC000007CC000007AC00000D8
S113003078C0000076C0000074C0000072C00000E8
S113004070C000006EC000006CC000006AC00000F8
S113005068C00000EDC0000064C0000062C0000081
S113006060C000005EC000005CC000005AC0000018
S113007058C0000056C0000054C0000052C0000028
S113008050C000004EC000004CC000004AC0000038
S113009048C0000046C0000044C0000042C0000048
S11300A040C000003EC000003CC000003AC0000058
S11300B038C0000036C0000034C0000032C0000068
S11300C030C000002EC000002CC000002AC0000078
S11300D028C0000026C0000024C0000022C0000088
S11300E020C0000011241FBECFEFD1E2DEBFCDBF80
S11300F000E00CBF12E0A0E0B2E0E0EFF2E000E0CC
S11301000BBF02C007900D92A430B107D9F728E0C5
S1130110A4E0B2E001C01D92A730B207E1F7E5D038
S1130120E5C06ECF41E0559A509A519A80910702EA
S113013090910802209102023091030282179307E2
S113014024F440930602589A0AC020910002309188
S11301500102281739071CF410920602589880915E
S11301600702909108022091020230910302821743
S1130170930729F4109205021092040207C02091FB
S113018000023091010282179307A1F380910402C7
S113019090910502883C91057CF487EB9BE00197E4
S11301A0F1F700C0000080910402909105020196CD
S11301B090930502809304028FEC97E00197F1F786
S11301C000C00000599A5D9A809104029091050242
S11301D0883C91057CF487EB9BE00197F1F700C024
S11301E0000080910402909105020196909305020B
S11301F0809304028FEC97E00197F1F700C00000B0
S113020059985D9880910602813031F480910702FB
S113021090910802019607C0811185CF8091070251
S113022090910802019790930802809307027BCF74
S11302301F920F920FB60F9211242F938F939F93B7
S11302408091090290910A02019690930A02809388
S113025009028091090290910A02883E9340E9F5CF
S11302608091150290911602019690931602809344
S1130270150210920A0210920902809115029091BF
S11302801602CC9769F480910B0290910C020196AE
S113029090930C0280930B02109216021092150296
S11302A080910B0290910C02CC9769F48091130217
S11302B09091140201969093140280931302109269
S11302C00C0210920B028091130290911402489731
S11302D021F410921402109213029F918F912F9186
S11302E00F900FBE0F901F9018951CDFF894FFCF4E
S10702F0E80318FC07
S9030000FC
