:1000000071C000008EC000008CC000008AC00000DB
:1000100088C0000086C0000084C0000082C00000CC
:1000200080C000007EC000007CC000007AC00000DC
:1000300078C0000076C0000074C0000072C00000EC
:1000400070C000006EC000006CC000006AC00000FC
:1000500068C000009AC0000064C0000062C00000D8
:1000600060C000005EC000005CC000005AC000001C
:1000700058C0000056C0000054C0000052C000002C
:1000800050C000004EC000004CC000004AC000003C
:1000900048C0000046C0000044C0000042C000004C
:1000A00040C000003EC000003CC000003AC000005C
:1000B00038C0000036C0000034C0000032C000006C
:1000C00030C000002EC000002CC000002AC000007C
:1000D00028C0000026C0000024C0000022C000008C
:1000E00020C0000011241FBECFEFD1E2DEBFCDBF84
:1000F00000E00CBF12E0A0E0B2E0EAE4F2E000E0D1
:100100000BBF02C007900D92A430B107D9F728E0C9
:10011000A4E0B2E001C01D92A530B207E1F792D091
:1001200092C06ECF41E0809105029091060220912D
:100130000202309103028217930724F440930402D1
:10014000509A0AC020910002309101022817390705
:100150001CF4109204025098519A2FEF8FE392E012
:10016000215080409040E1F700C0000051988091FC
:1001700004028130C1F68091050290910602019738
:100180009093060280930502CECF1F920F920FB676
:100190000F9211242F938F939F9380910702909138
:1001A000080201969093080280930702809107024B
:1001B00090910802883E9340E9F580911302909156
:1001C0001402019690931402809313021092080275
:1001D000109207028091130290911402CC9769F457
:1001E0008091090290910A02019690930A028093ED
:1001F0000902109214021092130280910902909148
:100200000A02CC9769F48091110290911202019632
:10021000909312028093110210920A021092090226
:100220008091110290911202489721F410921202CB
:10023000109211029F918F912F910F900FBE0F90EE
:0A0240001F9018956FDFF894FFCFB0
:04024A0064009CFFB1
:00000001FF
